:020000040800F2
:1000000040110020291E0008550100085701000872
:100010005B0100085F0100086301000800000000A8
:100020000000000000000000000000006701000860
:1000300069010008000000006B0100086D01000864
:10004000431E0008431E0008431E0008431E00080C
:10005000431E0008431E0008431E0008431E0008FC
:10006000431E0008431E0008431E0008431E0008EC
:10007000431E0008431E0008431E0008431E0008DC
:10008000431E0008431E0008431E0008431E0008CC
:10009000431E0008431E0008431E0008431E0008BC
:1000A000431E0008431E0008431E0008431E0008AC
:1000B000431E0008D3030008431E0008431E000827
:1000C000431E0008431E0008431E0008431E00088C
:1000D000431E0008DB1F00086F200008431E0008B5
:1000E000431E0008431E0008431E0008DFF80CD022
:1000F00003F0C8FE0048004701010008401100203D
:1001000000F0A5F84FF4A06000F08EF902F036F888
:1001100003F007FD4FF4E12001F098FE4FF4E120D9
:1001200001F0E5FE40F2CF7148F69F4000F020F963
:1001300004A21421022003F01CFC02F0A4FD00BF65
:10014000FEE700004F4C454420496E6974204F4B38
:100150002E000000704700BFFEE700BFFEE700BFB3
:10016000FEE700BFFEE7704770477047704700002A
:100170000CB50020019000906C48006840F480307D
:100180006A49086000BF6948006800F400300090C8
:100190000198401C0190009818B90198B0F5A06F23
:1001A000F1D16248006800F4003010B101200090E5
:1001B00001E0002000900098012843D15C480068CD
:1001C00040F010005A4908600846006820F003001B
:1001D00008600846006840F0020008605348406824
:1001E000524948600846406848600846406840F404
:1001F000806048600846406820F47C1048600846EB
:10020000406840F4E81048600846006840F080709C
:10021000086000BF4548006800F000700028F9D071
:100220004248406820F00300404948600846406862
:1002300040F00200486000BF3C48406800F00C00FD
:100240000828F9D10CBD10B5FFF792FF10BD10B50D
:100250003648006840F001003449086008464068AC
:10026000344908403149486008460068324908402E
:100270002E4908600846006820F48020086008467F
:10028000406820F4FE0048604FF41F008860FFF7CC
:10029000DAFF4FF000602949086010BD10B5002159
:1002A00000200022214B5B6803F00C0121B10429DE
:1002B00006D0082928D107E0214B224C236027E0F3
:1002C0001F4B204C236023E0184B5B6803F4701035
:1002D000164B5B6803F48032022303EB904022B993
:1002E000194B4343174C23600DE0104B5B6803F43C
:1002F000003323B1144B4343124C236003E0104BF3
:100300004343104C236003E00D4B0E4C236000BFB1
:1003100000BF064B5B68C3F303130C4CE15C094B55
:100320001B68CB40074C236010BD0000001002404A
:10033000002002400000FFF8FFFFF6FE08ED00E09D
:1003400000127A000000002000093D000400002097
:10035000002107E041F2707100BF0A00A1F1010322
:1003600099B2FAD10200A0F1010398B2F2D170471C
:100370007FB505460C460121022000F0ECFBADF8EC
:100380000850ADF804400020ADF80A00ADF80600B2
:1003900001A9204800F00AFD012211461D4801F084
:1003A0007CF84FF4C06000F03FF81D208DF800008D
:1003B00000208DF8010003208DF8020001208DF847
:1003C0000300684600F035F80121124801F04AF8B0
:1003D0007FBD10B501210F4801F00DFBC0B1012117
:1003E0000C4801F019FB0C480068401C0A490860E1
:1003F00008460068B0F5167F0ADB00200860074851
:100400000068C0430649C1F8B401012005490860ED
:1004100010BD00000004004014000020B40122427E
:10042000000022421800002031490143314A116086
:10043000704770B5002100230F22C47804B32D4CFF
:10044000246804F4E064C4F5E064210AC1F1040303
:10045000CA40447804FA03F1847814402143090126
:10046000254C0678A155047804F01F050124AC4002
:1004700005786D11AD0005F1E025C5F8004109E0F2
:10048000047804F01F050124AC401C4D0678761159
:1004900045F8264070BD1A4A0A400243154B1B1FFF
:1004A0001A60704739B1134A121D12680243114B8A
:1004B0001B1D1A6006E00F4A121D126882430D4B85
:1004C0001B1D1A607047042808D14FF0E02109690C
:1004D00041F004014FF0E022116107E04FF0E0210C
:1004E000096921F004014FF0E0221161704700001A
:1004F0000000FA050CED00E000E400E080E100E01F
:1005000080FFFF1F10B50446CC48844208D101216A
:10051000042000F02DFB0021042000F029FB46E020
:10052000C748844208D10121082000F021FB0021A6
:10053000082000F01DFB3AE0C248844208D10121A6
:10054000102000F015FB0021102000F011FB2EE020
:10055000BD48844208D10121202000F009FB002180
:10056000202000F005FB22E0B848844208D1012198
:10057000402000F0FDFA0021402000F0F9FA16E0DA
:10058000B348844208D10121802000F0F1FA002113
:10059000802000F0EDFA0AE0AE48844207D1012144
:1005A000801500F0E5FA0021A01500F0E1FA10BD79
:1005B00010B50121084600F0DBFA0021012000F00F
:1005C000D7FA10BD2DE9F041024600250026002093
:1005D00000230024002791F803C00CF00F0591F8C8
:1005E00003C00CF0100CBCF1000F03D091F802C056
:1005F0004CEA050591F800C0BCF1000F31D0146839
:1006000000202BE04FF0010C0CFA00F3B1F800C011
:100610000CEA03069E4220D183004FF00F0C0CFA27
:1006200003F7BC4305FA03FC4CEA040491F803C049
:10063000BCF1280F06D14FF0010C0CFA00FCC2F8F7
:1006400014C00AE091F803C0BCF1480F05D14FF087
:10065000010C0CFA00FCC2F810C0401C0828D1D3D1
:100660001460B1F800C0BCF1FF0F34DD5468002005
:100670002EE000F1080C4FF0010808FA0CF3B1F875
:1006800000C00CEA03069E4221D183004FF00F0CFC
:100690000CFA03F7BC4305FA03FC4CEA040491F896
:1006A00003C0BCF1280F05D100F1080C08FA0CF8C2
:1006B000C2F8148091F803C0BCF1480F07D100F1D3
:1006C000080C4FF0010808FA0CF8C2F81080401C22
:1006D0000828CED35460BDE8F0814FF6FF71018049
:1006E000022181700421C170704702460020936886
:1006F0000B400BB1012000E00020704701468868E4
:1007000080B2704702460020D3680B400BB1012035
:1007100000E0002070470146C86880B27047016160
:100720007047416170470AB1016100E04161704763
:10073000C16070474FF480320A43826181618261F7
:1007400082698269704702460020434B18684FF661
:100750008073184040EA021008433F4B186070470E
:100760003E49C8617047F0B50A46002300240021C5
:10077000002500F00046B6F1004F02D1364EF16977
:1007800001E0354E7168C0F3034583B200F44016B2
:10079000B6F5401F08D121F070612F4E766826F023
:1007A00070662D4F7E6012E000F48016B6F5801F53
:1007B00006D1032606FA05F4A14341F0706106E074
:1007C000460D360103FA06F6B14341F0706122B1DD
:1007D000460D360103FA06F6314300F00046B6F145
:1007E000004F02D11C4EF16101E01B4E7160F0BD63
:1007F00030B500228B071C0F0F2303FA04F2164BAF
:1008000008338C1053F824309343134C08348D1064
:1008100044F8253023468C1053F824308C07240FDD
:1008200000FA04F423430C4C08348D1044F82530AE
:1008300030BD0A49DC310860704700000008014003
:10084000000C01400010014000140140001801405C
:10085000001C014000200140000001400000204237
:10086000DF48006840F00100DD4908600846406844
:10087000DC490840DA49486008460068DA4908401F
:10088000D74908600846006820F4802008600846C0
:10089000406820F4FE0048604FF41F0088607047F5
:1008A000CF49096821F48031CD4A116011460968A9
:1008B00021F480211160B0F5803F03D0B0F5802F86
:1008C0000ED106E0C649096841F48031C44A11607E
:1008D00007E0C349096841F4A021C14A116000E062
:1008E00000BF00BF704710B5014600220023002062
:1008F0004A11012A02D1BA4C236806E0022A02D129
:10090000B74C236A01E0B64C636A01F01F02012470
:1009100094401C400CB1012000E0002010BD38B50F
:10092000002000900024002500BF3120FFF7DBFFEE
:1009300005460098401C00900098B0F5A06F01D0CB
:10094000002DF2D03120FFF7CEFF08B1012400E0E6
:100950000024204638BD01460020A14A106820F03E
:10096000F80040EAC10010607047A0490860704775
:10097000024600209A4B586820F47C1042EA01039A
:100980001843974B5860704798490866704701466E
:100990000020934A506820F00300084350607047DD
:1009A0008F48406800F00C007047014600208C4AD8
:1009B000506820F0F0000843506070470146002066
:1009C000874A506820F4E060084350607047014651
:1009D0000020834A506820F4605040EAC100506013
:1009E000704729B17E4A527A02437D4B5A7204E025
:1009F0007B4A527A82437A4B5A7270477B49D8318C
:100A00000860704701460020754A506820F4404055
:100A10000843506070470021714A20321170704ABB
:100A200082F82010012802D004280AD104E0012114
:100A30006B4A2032117005E00521694A203211709D
:100A400000E000BF00BF7047694908607047644913
:100A5000096A0143624A1162704765494439086076
:100A6000704730B500210022002400235C4D6D68E2
:100A700005F00C0121B1042905D0082923D105E096
:100A80005C4D056022E05B4D05601FE0544D6D68D4
:100A900005F47012524D6D6805F48034022505EBA3
:100AA00092421CB9544D554305600BE04C4D6D68A6
:100AB00005F400351DB1504D5543056002E04D4D24
:100AC0005543056002E04B4D056000BF00BF444D3B
:100AD0006D6805F0F0010909484D6B5C0568DD4063
:100AE00045603F4D6D6805F4E061090A434D6B5C5C
:100AF0004568DD4085603A4D6D6805F46051C90A6E
:100B00003E4D6B5C4568DD40C560354D6D6805F454
:100B10004041890B3A4D6B5CC568B5FBF3F5056147
:100B200030BD29B12E4A526902432D4B5A6104E06F
:100B30002B4A526982432A4B5A61704729B1284A8D
:100B400092690243264B9A6104E0254A92698243E6
:100B5000234B9A61704729B1214AD2690243204B45
:100B6000DA6104E01E4AD26982431D4BDA617047A4
:100B700029B11B4AD2680243194BDA6004E0184AD3
:100B8000D2688243164BDA60704729B1144A126961
:100B90000243134B1A6104E0114A12698243104B5D
:100BA0001A61704712494039086070470F49C8649C
:100BB00070470B49C87170470948406A40F080701F
:100BC00007494862704701460020054A92680A407A
:100BD0000AB1012000E00020704701498872704787
:100BE000001002400000FFF8FFFFF6FE0000424246
:100BF0008004424200127A0000093D001C000020DF
:100C00002C00002010B50446FE48844208D1012182
:100C1000C014FFF7ADFF0021E014FFF7A9FFC4E007
:100C2000B4F1804F08D101210846FFF7AEFF002143
:100C30000120FFF7AAFFB8E0F348844208D1012160
:100C40000220FFF7A2FF00210220FFF79EFFACE089
:100C5000EE48844208D101210420FFF796FF0021CD
:100C60000420FFF792FFA0E0E948844208D1012167
:100C70000820FFF78AFF00210820FFF786FF94E095
:100C8000E448844208D101211020FFF77EFF0021B3
:100C90001020FFF77AFF88E0DF48844208D1012165
:100CA0002020FFF772FF00212020FFF76EFF7CE07D
:100CB000DA48844208D101214014FFF759FF00218E
:100CC0006014FFF755FF70E0D548844209D1012137
:100CD000C804FFF74DFF00214FF40020FFF748FF45
:100CE00063E0D048844209D101210805FFF740FFA5
:100CF00000214FF48010FFF73BFF56E0CA488442C2
:100D000009D101214805FFF733FF00214FF40010FE
:100D1000FFF72EFF49E0C548844208D10121402059
:100D2000FFF733FF00214020FFF72FFF3DE0C048D1
:100D3000844208D101218020FFF727FF0021802075
:100D4000FFF723FF31E0BB48844208D10121801521
:100D5000FFF71BFF0021A015FFF717FF25E0B6489E
:100D6000844209D101210804FFF702FF00214FF45A
:100D70008030FFF7FDFE18E0B048844209D1012120
:100D80004804FFF7F5FE00214FF40030FFF7F0FEB6
:100D90000BE0AB48844208D101218804FFF7E8FE4C
:100DA00000214FF48020FFF7E3FE10BD00220288EF
:100DB000944B98420ED0994B98420BD0B0F1804F93
:100DC00008D0914B984205D0904B984202D0904B5E
:100DD000984204D14FF68F731A404B881A438D4BBB
:100DE000984207D08C4B984204D04FF6FF431A40EC
:100DF000CB881A4302808B8883850B880385814BBF
:100E000098420BD0854B984208D08B4B984205D026
:100E10008A4B984202D08A4B984201D10B7A0386C2
:100E200001238382704770B5002400220023058CC3
:100E30004FF6FE7635400584028C8388048B4FF68E
:100E40008F752C40B51E2C400D882C43751E2A40F2
:100E50000D892A434D882A436A4DA8420BD06F4D15
:100E6000A84208D0744DA84205D0744DA84202D0C3
:100E7000734DA84213D14FF6F7752A404D892A4386
:100E80004FF6FB752A408D882A434FF6FF652B40AD
:100E90004FF6FF552B408D892B43CD892B43838003
:100EA0000483CD888586028470BD70B5002400223D
:100EB0000023058C4FF6EF7635400584028C83883D
:100EC000048B48F6FF752C404FF6FF452C400D88EB
:100ED0004FF6FF7606EA05252C434FF6DF752A40CC
:100EE0000D8906EA05152A434D8806EA05152A43A9
:100EF000444DA84202D0494DA8421DD14FF67F75FE
:100F00002A404D894FF6FF7606EA05152A434FF62B
:100F1000BF752A408D8806EA05152A434FF6FF352E
:100F20002B404FF2FF752B408D8906EA85052B4338
:100F3000CD8906EA85052B4383800483CD88058708
:100F4000028470BD70B5002400220023058C4FF68A
:100F5000FF6635400584028C8388848B4FF68F753D
:100F60002C404FF6FC752C400D882C434FF6FF5556
:100F70002A400D894FF6FF7606EA05252A434D885B
:100F800006EA05252A431F4DA84202D0234DA84258
:100F90001DD14FF2FF752A404D894FF6FF7606EAC4
:100FA00005252A434FF6FF352A408D8806EA052598
:100FB0002A434EF6FF752B404DF6FF752B408D8969
:100FC00006EA05152B43CD8906EA05152B438380D8
:100FD0008483CD888587028470BD70B5002200238C
:100FE0000024058C4EF6FF7635400584038C8488FA
:100FF000828B48F6FF752A404FF6FF452A400D8840
:1010000020E00000002C01400004004000080040E7
:10101000000C00400010004000140040003401406B
:10102000004C0140005001400054014000180040B5
:10103000001C0040002000400040014000440140EE
:10104000004801404FF6FF7606EA05252A434DF693
:10105000FF752B400D8906EA05352B434D8806EABE
:1010600005352B43FA4DA84202D0FA4DA84208D1CB
:101070004BF6FF752C408D894FF6FF7606EA8515F5
:101080002C4384808283CD88A0F84050038470BDB7
:10109000828B4FF2FF331A408283828B4FF6FF73AD
:1010A00003EA01231A4382837047F0B50C461546C4
:1010B000002200210026078C4EF6FF7C07EA0C0771
:1010C0000784828B018C4FF6FF7707EA043640F6DF
:1010D000FF473A404FF6FF7707EA05273A434FF6B6
:1010E000FF7707EA03373A43D94FB8420ED0D94FBA
:1010F000B8420BD0B0F1804F08D0D74FB84205D0DE
:10110000D64FB84202D0D64FB84206D14DF6FF773F
:10111000394046F48057394305E047F6FF573940D8
:1011200044F48057394382830184F0BD828B4FF6AB
:10113000F3731A408283828B0A4382837047F0B52F
:101140000C461546002200210026078C4FF6FF6C46
:1011500007EA0C070784828B018C4FF6FF7707EABA
:1011600004264FF60C773A404FF6FF7707EA03174D
:101170002F433A43B64FB8420ED0B64FB8420BD0C9
:10118000B0F1804F08D0B44FB84205D0B34FB84249
:1011900002D0B34FB84206D14FF6FF57394046F45C
:1011A0008077394305E04FF2FF57394044F48077A8
:1011B000394382830184F0BD028B4FF2FF331A4022
:1011C0000283028B4FF6FF7303EA01231A43028363
:1011D0007047F0B50C461546002200210026078C0A
:1011E0004FF6EF7C07EA0C070784028B018C4FF661
:1011F000FF7707EA041640F6FF473A404FF6FF77BD
:1012000007EA03373A434FF6FF7707EA05273A43E1
:101210008F4FB8420ED08F4FB8420BD0B0F1804FF5
:1012200008D08D4FB84205D08C4FB84202D08C4FB9
:10123000B84206D14FF6DF77394046F01007394300
:1012400005E04FF65F77394044F0100739430283D9
:101250000184F0BD028B4FF6F3731A400283028BB8
:101260000A4302837047F0B50C4615460022002160
:10127000068C4FF6FE773E400684028B018C4FF6BB
:101280000C7632407E1C06EA03162E433243704E23
:10129000B0420ED06F4EB0420BD0B0F1804F08D0AC
:1012A0006D4EB04205D06D4EB04202D06C4EB04291
:1012B00006D14FF6FD76314044F00106314305E09A
:1012C0004FF6F576314044F0010631430283018444
:1012D000F0BD70B505460C465D4885420ED05D48B0
:1012E00085420BD0B5F1804F08D05B48854205D0D0
:1012F0005A48854202D05A48854200D100E000BFDA
:10130000208850B92389A28861882846FFF7ABFF5F
:10131000E1882846FFF79EFF25E0208804280AD1AF
:101320002389A28861882846FFF753FFE188284671
:10133000FFF742FF17E0208808280AD12389A288F6
:1013400061882846FFF7FBFEE1882846FFF7EEFE9E
:1013500009E02389A28861882846FFF7A6FEE18874
:101360002846FFF795FE70BD2DE9F04105460C4675
:1013700000260127608808B9022600E00026A08820
:10138000012801D1022700E001272088A0B9238984
:10139000A28861882846FFF766FFE1882846FFF7A4
:1013A00059FF23893A4631462846FFF712FFE18864
:1013B0002846FFF701FF13E02389A28861882846A9
:1013C000FFF707FFE1882846FFF7F6FE23893A4634
:1013D00031462846FFF747FFE1882846FFF73AFFE6
:1013E000BDE8F0810A884B881A438B881A43CB8862
:1013F0001A430B891A434B891A438B891A43A0F865
:10140000442070474FF6FF71818000210180C18028
:101410004180017270470021018041808180C1803C
:10142000018141818181C18170470021018041801A
:10143000012181800021C18001817047002101804C
:1014400041808180C180018141818181704700009C
:10145000002C01400034014000040040000800401E
:10146000000C004021B1028842F00102028004E039
:1014700002884FF6FE731A400280704731B1B0F80F
:10148000442042F40042A0F8442005E0B0F8442093
:10149000C2F30E02A0F8442070471AB183890B43AF
:1014A000838102E083898B43838170478182704707
:1014B00041EA0203A0F8483070471AB183890B4310
:1014C000838102E083898B438381704701894FF6D2
:1014D000F8721140018170470A46002101894FF6D8
:1014E0008F73194011430181704730B504460D4692
:1014F00029462046FFF7F0FF208940F007002081B1
:1015000030BD2DE9F04104460D4616461F46602DBC
:1015100006D13B46012231462046FFF75AFE05E040
:101520003B46012231462046FFF79DFE29462046D4
:10153000FFF7D2FF208940F007002081BDE8F0814D
:1015400030B50C4600210189C9B24FF6FF7505EA96
:101550000325154325432943018130BD2DE9F04181
:1015600005460E4617469846002443463A463146FD
:101570002846FFF7E5FF2C894FF6F870044044F049
:1015800007044FF68F70044044F070042C81BDE8CE
:10159000F081F0B504460D4616461F463B463246DE
:1015A00029462046FFF7CCFF208940F48040208167
:1015B000F0BD0185828270470A46002101884FF6FE
:1015C0008F731940114301807047F0B50C461546E2
:1015D0001E460021002200230189028B038C4FF656
:1015E000F877394021434FF6FC473A4040F2011763
:1015F0003A434FF6DD773B404FF6FF7707EA061791
:101600002F433B43018102830384F0BD0A4600213E
:10161000018B4FF68F7319401143018370470A46BF
:101620000021018B48F6FF7319404FF6FF7303EA60
:1016300002231943018370470A460021818B4FF62C
:101640008F7319401143818370470A460021818BB3
:1016500048F6FF7319404FF6FF7303EA022319435C
:101660008183704721B1028842F08002028004E049
:1016700002884FF67F731A400280704721B182883A
:1016800042F00402828004E082884FF6FB731A4025
:101690008280704721B1828842F00802828004E093
:1016A00082884FF6F7731A408280704721B1828892
:1016B00042F00102828004E082884FF6FE731A40F5
:1016C000828070470A460021018B4FF6F77319405C
:1016D0001143018370470A460021018B4FF2FF73CB
:1016E00019404FF6FF7303EA022319430183704741
:1016F0000A460021818B4FF6F7731940114381830D
:1017000070470A460021818B4FF2FF7319404FF654
:10171000FF7303EA02231943818370470A460021BD
:10172000018B4FF6FB7319401143018370470A4642
:101730000021018B4FF6FF3319404FF6FF7303EA88
:1017400002231943018370470A460021818B4FF61B
:10175000FB7319401143818370470A460021818B36
:101760004FF6FF3319404FF6FF7303EA0223194384
:10177000818370470A460021018B4FF67F73194021
:101780001143018370470A460021018BC1F30E010A
:101790004FF6FF7303EA02231943018370470A4699
:1017A0000021818B4FF67F7319401143818370476D
:1017B0000A460021818BC1F30E014FF6FF7303EA45
:1017C00002231943818370470A460021018C4FF69A
:1017D000FD7319401143018470470A460021018CB2
:1017E0004FF6F77319401143018470470A460021F0
:1017F000018C4FF6DF7319404FF6FF7303EA0213B3
:101800001943018470470A460021018C4FF67F730B
:1018100019404FF6FF7303EA02131943018470471E
:101820000A460021018C4FF6FF5319404FF6FF7313
:1018300003EA02231943018470470A460021018C00
:101840004FF2FF7319404FF6FF7303EA0223194367
:10185000018470470A460021018C4DF6FF73194040
:101860004FF6FF7303EA023319430184704730B522
:10187000002301248C40A3B2048C9C430484048C78
:1018800002FA01F5ADB22C43048430BD30B500231B
:1018900004248C40A3B2048C9C430484048C02FA7C
:1018A00001F5ADB22C43048430BD70B50346002071
:1018B00000241846183001258D40ACB21D8CA5437C
:1018C0001D8409B1082909D100EB6100056825F0E4
:1018D000700505600568154305600EE00D1FC5F332
:1018E0004E052844056825F4E045056005684FF677
:1018F000FF7606EA02263543056070BD21B10288F5
:1019000042F00202028004E002884FF6FD731A40A2
:101910000280704721B1028842F00402028004E094
:1019200002884FF6FB731A400280704721B182880B
:1019300042F08002828004E082884FF67F731A4072
:101940008280704702884FF6F7731A40028002883F
:101950000A430280704782884FF68F731A40828054
:1019600082880A438280704702894FF6F8731A40D2
:10197000028102890A430281704702894FF67F7310
:101980001A40028102890A430281704781847047AC
:1019900081857047818670470187704781877047CE
:1019A000A0F84010704702884FF6FF431A400280AB
:1019B00002880A43028070470146888E70470146BC
:1019C000088F70470146888F70470146B1F8400084
:1019D00070470146888C70470146088D7047024663
:1019E0000020138A0B400BB1012000E0002070475B
:1019F000CA430282704730B502460020002300240B
:101A0000158A05EA0103958905EA010413B10CB1B1
:101A1000012000E0002030BDCA4302827047000070
:101A200010B50446FB48844209D101218803FFF721
:101A30009FF800214FF48040FFF79AF832E0F64813
:101A4000844209D101214804FFF79FF800214FF497
:101A50000030FFF79AF825E0F048844209D10121CF
:101A60008804FFF792F800214FF48020FFF78DF8EB
:101A700018E0EB48844209D10121C804FFF785F83A
:101A800000214FF40020FFF780F80BE0E548844286
:101A900008D101210805FFF778F800214FF48010E4
:101AA000FFF773F810BD2DE9F04786B005460E46E6
:101AB0000024A24600BFA1460027B08900B100BFA4
:101AC0002F462C8A4CF6FF700440F08804432C8289
:101AD000AC894EF6F3100440B0883189084371890F
:101AE00008430443AC81AC8A4FF6FF400440B08900
:101AF0000443AC8201A8FEF7B4FFC648874202D176
:101B0000DDF810A001E0DDF80CA0A88900F4004089
:101B100040B10AEBCA0000EB0A1031684900B0FB83
:101B2000F1F807E00AEBCA0000EB0A1031688900FF
:101B3000B0FBF1F86420B8FBF0F004012009642147
:101B400001FB1089A88900F4004040B1322000EB6D
:101B5000C900B0FBF1F000F00700044308E03220B8
:101B600000EB09106421B0FBF1F000F00F0004431A
:101B70002C8106B0BDE8F0874FF4165101600021BA
:101B80008180C18001810C214181002181817047C8
:101B900010B502460020108A4FF2FF0318400B8850
:101BA0004C8823438C882343CC88234318431082DA
:101BB00010BD0021018041808180C180704721B12A
:101BC000828942F40052828104E082894DF6FF73DB
:101BD0001A4082817047F0B5034600240026002594
:101BE000002040F66A17B94200D100BF1846C1F381
:101BF000421401F01F06012707FA06F5012C01D156
:101C00000C3004E0022C01D1103000E014301AB185
:101C100007682F43076002E00768AF430760F0BD25
:101C20001AB1838A0B43838202E0838A8B438382C7
:101C30007047028A4FF6F0731A400282028A0A4302
:101C40000282704782894FF2FF731A408281828933
:101C50000A438281704721B1828942F00202828167
:101C600004E082894FF6FD731A4082817047028A30
:101C70004FF6DF731A400282028A0A4302827047DB
:101C800021B1028A42F48042028204E0028A4BF6C9
:101C9000FF731A4002827047C1F3080282807047C6
:101CA00001468888C0F308007047818941F001012E
:101CB00081817047028BD2B20283028B42EA0122F9
:101CC00002837047028B02F47F420283028B0A4335
:101CD0000283704721B1828A42F02002828204E0AE
:101CE000828A4FF6DF731A408282704721B1828A5E
:101CF00042F01002828204E0828A4FF6EF731A40AB
:101D00008282704721B1828A42F00802828204E016
:101D1000828A4FF6F7731A408282704721B1828916
:101D200042F40042828103E08289C2F30E02828182
:101D3000704721B1828A42F40062828204E0828A82
:101D40004FF2FF731A4082827047828A4FF6FB730C
:101D50001A408282828A0A438282704721B1828A33
:101D600042F00202828204E0828A4FF6FD731A403A
:101D70008282704702460020B1F5007F00D100BF8B
:101D800013880B400BB1012000E00020704701F4E4
:101D90000072B2F5007F00D100BFCA4302807047D5
:101DA00070B50246002400230025002040F66A1684
:101DB000B14200D100BFC1F3421501F01F0301265B
:101DC00006FA03F3012D02D19689334006E0022D75
:101DD00002D1168A334001E0968A33400C12012664
:101DE00006FA04F41688344013B10CB1012000E067
:101DF000002070BD10B50022002340F66A14A142F5
:101E000000D100BF0A1201249440A3B2DC43048035
:101E100010BD000000380140004400400048004070
:101E2000004C0040005000400648804706480047EC
:101E3000FEE7FEE7FEE7FEE7FEE7FEE7FEE7FEE77A
:101E4000FEE7FEE74F020008ED00000810B586B07F
:101E50000446012144F20400FEF770FEB848FFF783
:101E6000DFFD4FF40070ADF8140018208DF8170056
:101E700003208DF8160005A9B248FEF7A3FB4FF426
:101E80008060ADF8140004208DF8170005A9AD4856
:101E9000FEF798FB01940020ADF810000C20ADF87F
:101EA0000E000020ADF80C00ADF80A00ADF80800F7
:101EB00001A9A348FFF7F7FD25208DF800000120B8
:101EC0008DF8030002208DF8010001208DF802003A
:101ED0006846FEF7AEFA01219948FFF770FE01222D
:101EE00040F225519648FFF776FE06B010BD10B5BA
:101EF00086B0044601210420FEF720FE012148049B
:101F0000FEF729FE9048FFF78BFD0420ADF8140082
:101F100018208DF8170003208DF8160005A98948B0
:101F2000FEF750FB0820ADF8140004208DF81700D0
:101F300005A98448FEF746FB01940020ADF8100087
:101F40000C20ADF80E000020ADF80C00ADF80A0032
:101F5000ADF8080001A97C48FFF7A5FD26208DF803
:101F6000000000208DF8030002208DF801008DF89C
:101F700002006846FEF75DFA002240F225517248E1
:101F8000FFF729FE01217048FFF719FE4FF4FA60B0
:101F9000FEF7DEF901208DF803006846FEF749FAE6
:101FA00006B010BD70B504460D4612E000BF80219A
:101FB0002846FFF7DFFE0028F9D021782846FFF7F2
:101FC0006BFE00BF40212846FFF7D4FE0028F9D160
:101FD000641C20780028E9D170BD10B5002440F2BF
:101FE00025515748FFF7DCFE00283FD040F225512D
:101FF0005348FFF7FFFE5248FFF752FE0A281BD155
:1020000001205249086000BF04E05148005D514979
:102010000855641C50480068401EA042F5DC4D4A3B
:102020004EA14F4801F0A2FF45494D48FFF7BAFFC6
:1020300000204949086019E04748006848B9002471
:1020400005E000204249085542490855641C142CFB
:10205000F7DB3B48FFF724FEC1B23D483E4A126819
:1020600081543D480068401C3B49086010BD10B5D4
:1020700040F225513448FFF793FE002834D040F257
:1020800025513148FFF7B6FE2F48FFF709FEC4B2CD
:1020900034480088B0F5806F00D110BD3248007818
:1020A00010B901203049087030480068A8B13048A4
:1020B0000068401C2E4908600846006841F64C51F3
:1020C000884211DD481C2A49086026490888411CBD
:1020D000244A118027490C5406E022490888411CF3
:1020E000204A118023490C5400BFD6E710B500BF29
:1020F0001D4800780028FBD00BE01A4804880A200D
:10210000FEF726F917480088844202D100201649BC
:102110000870154800780028EFD1002405E0154824
:10212000005D15490855601C84B20E480088844241
:10213000F5DB00200B4908800F490855084610BD03
:1021400000380140000801400044004038000020F1
:10215000B9080020A50800204000002025730000D9
:10216000CD08002030000020320000208000002038
:1021700034000020A4000020A404002008B50121A0
:102180001420FEF7DBFC4FF40050ADF800001020E7
:102190008DF8030003208DF8020069460548FEF71C
:1021A00011FA0220ADF8000069460348FEF70AFA6A
:1021B00008BD00000010014000080140F8B50546C8
:1021C0000C46284601F096FD06460022FE4B01F023
:1021D000A5FD08D3284601F08DFD06460022FB4BE5
:1021E00001F0B4FD0AD825222821102001F024FC9A
:1021F00012222821202001F01FFCDDE0284601F0FA
:1022000079FD06460022F04B01F0A0FD18D82846C3
:1022100001F070FD06460022ED4B01F07FFD0FD26C
:1022200023222821082001F007FC2522282118203C
:1022300001F002FC12222821084601F0FDFBBBE060
:10224000284601F057FD06460022E14B01F07EFDD5
:1022500013D8284601F04EFD06460022DD4B01F062
:102260005DFD0AD223222821102001F0E5FB122275
:102270002821202001F0E0FB9EE0284601F03AFDF5
:1022800006460022D34B01F061FD18D8284601F024
:1022900031FD06460022D04B01F040FD0FD2232233
:1022A0002821082001F0C8FB16222821182001F05F
:1022B000C3FB12222821084601F0BEFB7CE0284621
:1022C00001F018FD06460022C34B01F03FFD13D874
:1022D000284601F00FFD06460022C04B01F01EFD0E
:1022E0000AD216222821102001F0A6FB1222282152
:1022F000202001F0A1FB5FE0284601F0FBFC064630
:102300000022B64B01F022FD18D8284601F0F2FC5D
:1023100006460022B24B01F001FD0FD224222821F3
:10232000082001F089FB16222821182001F084FBE7
:1023300012222821084601F07FFB3DE0284601F0EB
:10234000D9FC06460022A64B01F000FD13D8284612
:1023500001F0D0FC06460022A24B01F0DFFC0AD2BD
:1023600024222821102001F067FB1222282120209E
:1023700001F062FB20E0284601F0BCFC064600228A
:10238000984B01F0E3FC17D8284601F0B3FC064651
:1023900000228E4B01F0C2FC0ED2242228210820FC
:1023A00001F04AFB25222821182001F045FB1222CA
:1023B0002821084601F040FB4FF07E51204601F0F5
:1023C000DDFC0DD210200223002228210090502095
:1023D00001F083FA22222821602001F02DFB38E24F
:1023E0004FF07E51204601F0D3FC16D8204601F074
:1023F00081FC064600227C4B01F090FC0DD210209F
:102400000223012228210090502001F066FA2222A6
:102410002821602001F010FB1BE2204601F06AFC3D
:1024200006460022704B01F091FC16D8204601F0C0
:1024300061FC064600226D4B01F070FC0DD21020AD
:1024400002231A4628210090502001F046FA222249
:102450002821602001F0F0FAFBE1204601F04AFC5F
:1024600006460022614B01F071FC16D8204601F0AF
:1024700041FC064600225E4B01F050FC0DD21020BC
:102480000223032228210090502001F026FA222264
:102490002821602001F0D0FADBE1204601F02AFC7F
:1024A00006460022524B01F051FC16D8204601F09E
:1024B00021FC064600224F4B01F030FC0DD21020CB
:1024C0000223042228210090502001F006FA222243
:1024D0002821602001F0B0FABBE1204601F00AFC9F
:1024E00006460022434B01F031FC16D8204601F08D
:1024F00001FC06460022404B01F010FC0DD21020DA
:102500000223052228210090502001F0E6F9222222
:102510002821602001F090FA9BE1204601F0EAFBBF
:1025200006460022344B01F011FC16D8204601F07B
:10253000E1FB06460022314B01F0F0FB0DD21020EA
:102540000223062228210090502001F0C6F9222201
:102550002821602001F070FA7BE1204601F0CAFBDF
:1025600006460022254B01F0F1FB16D8204601F06B
:10257000C1FB06460022224B01F0D0FB0DD21020F9
:102580000223072228210090502001F0A6F92222E0
:102590002821602001F050FA5BE1204601F0AAFBFF
:1025A00006460022164B01F0D1FB37D8204601F039
:1025B000A1FB06460022134B01F0B0FB2ED21020E7
:1025C0000223082228211FE00080364000187540B1
:1025D00000E0504000205C4000B063400050694083
:1025E00000F06E4000787240000016400000274066
:1025F0000080334000803C400040434000C04840E1
:1026000000C04E4000A052400090502001F065F9FB
:1026100022222821602001F00FFA1AE1204601F061
:1026200069FB06460022FE4B01F090FB16D82046BF
:1026300001F060FB06460022FA4B01F06FFB0DD261
:1026400010200223092228210090502001F045F992
:1026500022222821602001F0EFF9FAE0204601F063
:1026600049FB06460022EF4B01F070FB16D82046CE
:1026700001F040FB06460022EB4B01F04FFB0DD270
:10268000102002230A2228210090502001F025F971
:1026900022222821602001F0CFF9DAE0204601F063
:1026A00029FB06460022E04B01F050FB16D82046DD
:1026B00001F020FB06460022DC4B01F02FFB0DD27F
:1026C000102002230B2228210090502001F005F950
:1026D00022222821602001F0AFF9BAE0204601F063
:1026E00009FB06460022D14B01F030FB16D82046EC
:1026F00001F000FB06460022CD4B01F00FFB0DD28E
:10270000102002230C2228210090502001F0E5F82F
:1027100022222821602001F08FF99AE0204601F062
:10272000E9FA06460022C24B01F010FB16D82046FB
:1027300001F0E0FA06460022BE4B01F0EFFA0DD29E
:10274000102002230D2228210090502001F0C5F80E
:1027500022222821602001F06FF97AE0204601F062
:10276000C9FA06460022B34B01F0F0FA16D820460B
:1027700001F0C0FA06460022AF4B01F0CFFA0DD2AD
:10278000102002230E2228210090502001F0A5F8ED
:1027900022222821602001F04FF95AE0204601F062
:1027A000A9FA06460022A44B01F0D0FA16D820461A
:1027B00001F0A0FA06460022A04B01F0AFFA0DD2BC
:1027C000102002230F2228210090502001F085F8CC
:1027D00022222821602001F02FF93AE0204601F062
:1027E00089FA06460022954B01F0B0FA16D8204629
:1027F00001F080FA06460022914B01F08FFA0DD2CB
:1028000010200223024628210090502001F065F894
:1028100022222821602001F00FF91AE0204601F061
:1028200069FA06460022864B01F090FA11D88549D4
:10283000204601F0A3FA0CD21020022311222821F5
:102840000090502001F049F822222821602001F058
:10285000F3F8F8BD10B504467BA1204601F026FA36
:1028600020B17CA1204601F021FA20B907221421D1
:10287000182001F0E1F87AA1204601F017FA20B102
:102880007CA1204601F012FA48B90222142110203E
:1028900001F0D2F801221421202001F0CDF87AA114
:1028A000204601F003FA20B90D221421182001F06E
:1028B000C3F877A1204601F0F9F998B90B22142149
:1028C000002001F0B9F806221421102001F0B4F81C
:1028D00010221421202001F0AFF811221421302001
:1028E00001F0AAF86DA1204601F0E0F998B90022A4
:1028F0001421104601F0A0F806221421102001F046
:102900009BF810221421202001F096F811221421A6
:10291000302001F091F865A1204601F0C7F998B97F
:102920000C221421002001F087F806221421102027
:1029300001F082F810221421202001F07DF81122EC
:102940001421302001F078F85BA1204601F0AEF9A7
:1029500048B904221421102001F06EF80E2214212F
:10296000202001F069F857A1204601F09FF948B9ED
:1029700000221421102001F05FF80E2214212020E3
:1029800001F05AF853A1204601F090F948B903220A
:102990001421102001F050F80E221421202001F003
:1029A0004BF84FA1204601F081F948B908221421C3
:1029B000102001F041F80E221421202001F03CF8F3
:1029C0004AA1204601F072F920B9102214211820E2
:1029D00001F032F846A1204601F068F948B9042216
:1029E0001421102001F028F80F221421202001F0DA
:1029F00023F842A1204601F059F948B900221421D8
:102A0000102001F019F80F221421202001F014F8F1
:102A10003EA1204601F04AF900B97DE086E00000C1
:102A200000A052400020564000A0594000605D4088
:102A300000B0604000B0624000D0644000F06640EA
:102A40000030694000005C43434C4541525F4441C3
:102A500059000000434C4541525F4E4947485400DD
:102A6000504152544C595F434C4F5544595F444177
:102A700059000000504152544C595F434C4F55444B
:102A8000595F4E4947485400434C4F554459000044
:102A90004C494748545F48415A4500004D4F444512
:102AA000524154455F48415A45000000484541564F
:102AB000595F48415A4500004C494748545F5241CC
:102AC000494E00004D4F4445524154455F524149E3
:102AD0004E00000048454156595F5241494E0000A2
:102AE00053544F524D5F5241494E0000464F4700EC
:102AF0004C494748545F534E4F5700004D4F444593
:102B0000524154455F534E4F5700000048454156CF
:102B1000595F534E4F57000003221421102000F03C
:102B20008BFF0F221421202000F086FFFEA12046FB
:102B300001F0BCF848B908221421102000F07CFFF5
:102B40000F221421202000F077FFFAA1204601F087
:102B5000ADF848B90A221421102000F06DFF0522BB
:102B60001421202000F068FFF4A1204601F09EF817
:102B700048B909221421102000F05EFF052214211B
:102B8000202000F059FFEFA1204601F08FF848B94E
:102B900003221421102000F04FFF122214212020C4
:102BA00000F04AFF10BD0020E849086009E000205D
:102BB000E749E64A12688854E4480068401CE34943
:102BC0000860E24800681428F1DB0020DF49086053
:102BD0001CE00020DF49DD4A126888540021DE48ED
:102BE000DA4A126881540020DC49D84A12688854B5
:102BF0000021DB48D54A12688154DA48D34A12686A
:102C00008154D2480068401CD0490860CF48006811
:102C10000528DEDB0020CD49086009E00021D2480C
:102C2000CA4A12688154C9480068401CC7490860F4
:102C3000C64800680A28F1DB0020C44908600EE09D
:102C40000021CA48C14A126881540020C849BF4ABD
:102C500012688854BD480068401CBC490860BB48E5
:102C600000680728ECDB704710B50024C149C24852
:102C7000FFF798F94FF47A70FDF76AFBFFF736FA21
:102C80000446204610BD08B50020BC4908600A2053
:102C9000FDF75EFB0120BA49C1F8840141F2707072
:102CA000FDF756FB012240F22551B248FEF793FF93
:102CB000B049B4A0FFF776F94FF4C870FDF748FBB0
:102CC000AC49B1A0FFF76EF94FF4C870FDF740FBB7
:102CD000AFA20021084600F04CFEB0A21421002053
:102CE00000F047FEB149B2480068FFF75BF9A1491F
:102CF000B0A0FFF757F94FF4C870FDF729FBFFF7B5
:102D0000F5F90446A949FFF74DF9AEA2002108469E
:102D100000F02FFEAEA21421002000F02AFE9549FB
:102D2000AFA0FFF73FF94FF47A70FDF711FBFFF703
:102D3000DDF904469D49FFF735F9B4A200210846A4
:102D400000F017FEB5A21421002000F012FE894900
:102D5000B6A0FFF727F94FF4C870FDF7F9FAFFF7AF
:102D6000C5F904469149FFF71DF9B4A200210846B0
:102D700000F0FFFDB5A21421002000F0FAFD7D490E
:102D8000B6A0FFF70FF94FF4C870FDF7E1FAFFF7AF
:102D9000ADF904468549FFF705F9B4A200210846BC
:102DA00000F0E7FDB5A21421002000F0E2FDFFF7DE
:102DB0005BFF7F4908607D497D480068FFF7F2F8B6
:102DC00000F0DCFCB1A21421084600F0D2FDB2A153
:102DD0007748006800F04CFFB1490860B1A1B048E5
:102DE000006800F045FFB049086008460068AC493B
:102DF0000968401AA0F10902A9480168093154483C
:102E000000F048FFA9A16A48006800F031FFA4491A
:102E100008608DA1A248006800F02AFFA24908605E
:102E2000084600689E490968401AA0F10D029C48B6
:102E300001680D314A4800F02DFF9FA15C480068F1
:102E400000F016FF964908609EA19548006800F0C2
:102E50000FFF954908600846006891490968401AC3
:102E6000A0F10C028E4801680C313A4800F012FFC4
:102E70008D4800688A490968401A0C38012804D135
:102E8000302034494870002088708FA1484800687D
:102E900000F0EEFE824908606BA18148006800F0F6
:102EA000E7FE81490860084600687D490968401AC4
:102EB000A0F10A027A4801680A312B4800F0EAFEC4
:102EC00084A13B48006800F0D3FE754908607DA1ED
:102ED0007348006800F0CCFE73490860084600683B
:102EE0006F490968401AA0F116026D480168163151
:102EF0001C4800F0CFFE7DA12D48006800F0B8FE10
:102F00006749086050A16648006800F0B1FE664954
:102F100008600846006862490968401A821F6048D4
:102F20000168891D0C48E5E053544F524D5F534EE4
:102F30004F570000445553540000000053414E4485
:102F40000000000057494E44000000007C000020B3
:102F50001D090020590000206300002068000020A7
:102F6000540000205E000020310900206D00002088
:102F700074000020004400404450000884012142B5
:102F8000000021422B2B2B0041540D0A00000000B1
:102F9000436F6E6E656374696E6700003E2020208B
:102FA0002020202020202020202000000038014068
:102FB0004800002041542B43574D4F44453D330DAD
:102FC0000A000000436F6E6E656374696E672E00C1
:102FD0003E3E3E3E202020202020202020200000B9
:102FE00041542B43495053544152543D2254435071
:102FF000222C226170692E63616979756E6170702F
:103000002E636F6D222C38300D0A0000436F6E6EF8
:10301000656374696E672E2E000000003E3E3E3EE2
:103020003E3E3E20202020202020000041542B4303
:1030300049504D4F44453D310D0A0000436F6E6EBF
:10304000656374696E672E2E2E0000003E3E3E3E84
:103050003E3E3E3E3E3E20202020000041542B4379
:10306000495053454E440D0A00000000436F6E6EF8
:10307000656374696E672E2E2E2E00003E3E3E3E26
:103080003E3E3E3E3E3E3E3E3E2000005570646168
:1030900074696E672E2E2E00736B79636F6E00005D
:1030A0004C000020222C22005000002074656D701E
:1030B000657261747572650068756D6964697479AB
:1030C000000000002C00000070726573737572655B
:1030D000000000006170706172656E745F74656DF0
:1030E000706572617475726500000000706D323534
:1030F0000000000000F0CEFDFDA1FE48006800F0D9
:10310000B7FDFD490860AFF2C001FB48006800F060
:10311000AFFDFA49086008460068F7490968401A97
:10312000A0F10C02F44801680C31F54800F0B2FD42
:10313000F4A1F048006800F09BFDEF490860AFF291
:103140007C01ED48006800F093FDEC4908600846FA
:103150000068E9490968401AC21FE7480168C91DAB
:10316000EA4800F097FDE94800F0AEFD044600F0A3
:10317000B8FDE7490860E7A1DE48006800F078FD87
:10318000DD490860E6A1DC48006800F071FDDB491C
:10319000086008460068D8490968401AA0F10B0287
:1031A000D54801680B31DF4800F074FDDD4800F0C0
:1031B0008BFD044600F095FDDB49086057E2DB48D3
:1031C000006801287ED10020D8490860D8490860ED
:1031D000FFF74AFDC7490860FFF7E5FC00F0CEFAAB
:1031E000AFF258121421084600F0C3FBAFF2581199
:1031F000C048006800F03CFDBF490860AFF25C11B8
:10320000BD48006800F034FDBC490860084600680D
:10321000B9490968401AA0F10902B74801680931A3
:10322000C44800F037FDAFF27C11B248006800F0EE
:103230001FFDB1490860AFF2F011AF48006800F01F
:1032400017FDAE49086008460068AB490968401A96
:10325000A0F10D02A84801680D31B74800F01AFD31
:10326000AFF2AC11A348006800F002FDA24908606B
:10327000AFF2B011A048006800F0FAFC9F49086066
:10328000084600689C490968401AA0F10C029A4857
:1032900001680C31A94800F0FDFC98480068964987
:1032A0000968401A0C38012804D13020A34948701D
:1032B00000208870AFF2F0118E48006800F0D8FC52
:1032C0008D4900E0B0E00860AFF284218A480068D0
:1032D00000F0CEFC89490860084600688649096804
:1032E000401AA0F10A02844801680A31944800F0AB
:1032F000D1FCAFF220217F48006800F0B9FC7E4984
:103300000860AFF240217C48006800F0B1FC7B49C6
:1033100008600846006878490968401AA0F116025A
:10332000754801681631874800F0B4FCAFF24421BB
:103330007048006800F09CFC6F490860AFF2F8210B
:103340006D48006800F094FC6C490860084600680D
:1033500069490968401A821F67480168891D7A48CF
:1033600000F098FC62A16348006800F081FC6249AB
:103370000860AFF22C316048006800F079FC5F49CA
:103380000860084600685C490968401AA0F10C0210
:10339000594801680C315A4800F07CFC59A1554845
:1033A000006800F065FC54490860AFF2E82152481B
:1033B000006800F05DFC51490860084600684E490D
:1033C0000968401AC21F4C480168C91D4F4800F0E7
:1033D00061FC4E4800F078FC044600F082FC4C4949
:1033E00008604CA14348006800F042FC4249086074
:1033F0004BA14148006800F03BFC4049086008468A
:1034000000683D490968401AA0F10B023A4801687A
:103410000B31444800F03EFC424800F055FC0446A5
:1034200000F05FFC4049086041480068002849DB23
:103430003F480068082845DA3D48006808B900F0B0
:103440009DF93B480068401C394908601B22002157
:10345000084600F0F1FA14220021102000F0ECFAE6
:1034600018220021202000F0E7FA1D220021302040
:1034700000F0E2FA1F220021502000F0DDFA0622BF
:103480000021602000F0D8FA2A48FFF7E3F92A4823
:1034900000782D2805D1284A1421482000F069FA27
:1034A00004E0254A1421502000F063FA212214215F
:1034B000602000F0C1FA164801681B480068FEF75A
:1034C0007DFECAE01A48006808287CDB18480068BE
:1034D000102878DA16480068082801D100F04EF963
:1034E00013480068401C12490860202200212DE08A
:1034F00061716900480000204C000020500000204D
:103500006800002073706565640000006D00002095
:1035100088000020646972656374696F6E00000042
:103520007D000000740000208C00002018000020A6
:10353000840000201D0900205400002059000020B4
:10354000310900205E00002063000020102000F000
:1035500073FA06220021202000F06EFA1D221421A9
:10356000102000F069FA17221421202000F064FADC
:103570003F4A0021502000F0FCF9012010232522B1
:1035800000210090602000F040F93A4A14213C20CC
:1035900000F0EFF938A21421702000F0EAF91322AC
:1035A0002821102000F048FA1C222821202000F0B9
:1035B00043FA324800782D2806D1304A28213C2091
:1035C00000F0D7F905E00AE02C4A2821442000F059
:1035D000D0F921222821642000F02EFA3DE028486D
:1035E0000068102839DB26480068102801D100F057
:1035F000C5F823480068401C2149086021A2002129
:10360000102000F0B6F921A20021542000F0B1F9F9
:103610001F4A14211C2000F0ACF91E4A1421582026
:1036200000F0A7F918222821102000F005FA1E2228
:103630002821202000F000FA16222821502000F036
:10364000FBF91A222821602000F0F6F90C480068E6
:10365000162802D100200A4908604FF47A70FCF75E
:1036600077FE0D480068C0430C49C1F8B401A6E5D7
:103670005900002031090020506100005E00002048
:1036800084000020504D322E350000004151490089
:103690006300002068000020B401224200002242A2
:1036A00010B50A461AB10123FE4C236002E0002344
:1036B000FC4C23600023FC4C2360002116E0002317
:1036C000F84C0C3C236000F080031BB10123241D47
:1036D000236003E00023F34C083C23600123F14CFA
:1036E0000C3C23604306180E4B1CD9B20829E6DBBC
:1036F0000123EC4C2360ED4CC4F8803110BD00B5C3
:1037000000218D20FFF7CCFF00211420FFF7C8FF18
:103710000021AF20FFF7C4FF00BD00B500218D20C0
:10372000FFF7BEFF00211020FFF7BAFF0021AE20F7
:10373000FFF7B6FF00BD30B500241CE004F1B00176
:10374000C8B20021FFF7ACFF00210846FFF7A8FF31
:1037500000211020FFF7A4FF002508E0D44901EB69
:10376000C501085D0121FFF79BFF681CC5B2802DD4
:10377000F4DB601CC4B2082CE0DB30BD30B50024A3
:103780000CE0002506E00020C94901EBC501085501
:10379000681CC5B2802DF6DB601CC4B2082CF0DBBF
:1037A000FFF7C9FF30BDF0B5144600267F2801DCC5
:1037B0003F2900DDF0BD0B46CF1701EB5777FF1017
:1037C000C7F10707FAB2CF1701EB5777FF10A1EB4C
:1037D000C707FDB2C5F107070123BB40DEB24CB1FC
:1037E000B34B03EBC0039B5C3343B14F07EBC00704
:1037F000BB5408E0AE4B03EBC0039B5CB343AC4F40
:1038000007EBC007BB5400BFD4E72DE9F04F80465B
:103810000F4616461C46BB46A6F12000C6B2002540
:103820004CE00C2C07D106EB4600A24901EB8000CE
:1038300010F8059012E0102C05D19F4800EB0610FF
:1038400010F805900AE0202C05D19C4800EB0610EA
:1038500010F8059002E09A4810F805904FF0000A21
:1038600026E009F0800028B139464046099AFFF762
:103870009AFF09E0099808B9012000E000200246FB
:1038800039464046FFF78FFF4FEA49604FEA10691B
:10389000781CC7B2A7EB0B00A04205D15F4608F128
:1038A000010000F0FF0806E00AF1010000F0FF0A45
:1038B000BAF1080FD5DB00BF681CC5B2A542B0DB6A
:1038C000BDE8F08F10B50246012000E050430B0028
:1038D000A1F10104E1B2F9D110BD2DE9FF4F81B092
:1038E000074691461E460E9D4FF0000A002439E01F
:1038F000301B401EC1B20A20FFF7E4FFB9FBF0F015
:103900000A21B0FBF1F201FB1208BAF1000F16D147
:10391000701EA04213DDB8F1000F0ED10120AB469E
:1039200005EBDB71491001FB04710090C8B22B4616
:1039300020220299FFF769FF12E04FF0010A0120EF
:10394000AB4605EBDB71491001FB04710090C8B276
:1039500008F13001CAB22B460299FFF756FF00BFAB
:10396000601CC4B2B442C3DBFFF7E5FE05B0BDE89E
:10397000F08F78B505460E46144618E07A2D03DD23
:10398000002506F11000C6B23A2E04DD00200546DF
:103990000646FFF7F3FE01200090227810233146FF
:1039A0002846FFF732FF05F10800C5B2641C2078F5
:1039B0000028E3D1FFF7BFFE78BD2DE9F04F0746A1
:1039C0000C4690461D46A346002631E03B4800EBDE
:1039D000081010F806904FF0000A23E009F080006C
:1039E00028B12A4621463846FFF7DDFE08E00DB92A
:1039F000012000E00020024621463846FFF7D3FEB2
:103A00004FEA49604FEA1069601CC4B2A4EB0B0096
:103A1000102803D15C46781CC7B206E00AF1010009
:103A200000F0FF0ABAF1080FD8DB00BF701CC6B265
:103A3000102ECBDBBDE8F08FF0B506460F461546DD
:103A4000002408E06806020E012339463046FFF7DD
:103A5000B4FF601CC4B2102CF4DB00240BE069003E
:103A6000491CCAB206F10801C8B201233946FFF762
:103A7000A4FF601CC4B2102CF1DBFFF75CFEF0BDAC
:103A800030B504460D4605F1B001C8B20021FFF77C
:103A900007FE102141EA14100021FFF701FE04F097
:103AA0000F010FE09C0121428081214200802142D0
:103AB0003B0900209A4000080E450008FE4A000815
:103AC0009000002041F001000021FFF7E9FD30BD2A
:103AD0002DE9F04F06464FF00009002505F1800062
:103AE00000F0FF0A4FF0000B08F1080000F0FF089B
:103AF0005C4612E021462846FFF7C2FF2F4608E049
:103B0000494609F10109705C0121FFF7C9FD781CE4
:103B1000C7B25745F4DB601CC4B24445EADBBDE8DC
:103B2000F08F08B501210C20FDF708F8F820ADF85A
:103B3000000010208DF8030003208DF80200694674
:103B40004748FCF73FFD0120ADF8000069464548B5
:103B5000FCF738FD0020444908604FF47A70FCF708
:103B6000F7FB01204149C1F898010021AE20FFF781
:103B700097FD00210846FFF793FD00211020FFF775
:103B80008FFD00214020FFF78BFD00218120FFF7F2
:103B900087FD0021CF20FFF783FD0021A120FFF743
:103BA0007FFD0021C020FFF77BFD0021A620FFF74D
:103BB00077FD0021A820FFF773FD00213F20FFF7CC
:103BC0006FFD0021D320FFF76BFD00210846FFF7B2
:103BD00067FD0021D520FFF763FD00218020FFF75E
:103BE0005FFD0021D920FFF75BFD0021F120FFF7E9
:103BF00057FD0021DA20FFF753FD00211220FFF7C7
:103C00004FFD0021DB20FFF74BFD00214020FFF797
:103C100047FD00212020FFF743FD00210220FFF790
:103C20003FFD00218D20FFF73BFD00211420FFF711
:103C300037FD0021A420FFF733FD0021A620FFF768
:103C40002FFD0021AF20FFF72BFD0021AF20FFF754
:103C500027FDFFF793FD00210846FFF711FF08BD80
:103C600000080140000C014098012142000021425F
:103C700030B505462A460B4612F8010B13F8014BE6
:103C800008B1A042F8D01CB1002802D06D1CF1E7A9
:103C9000284630BD10B5044604E00B7800F8013B1F
:103CA00003B1491C521EF8D2204610BD10B50022A7
:103CB00000E0521C835C8C5CA34201D1002BF8D144
:103CC000D8B2E1B2401A10BD70B5064600F062F9F4
:103CD000046805460A220021304600F063F82C6093
:103CE00070BDC10F80EAE0700844CA079623002126
:103CF00000F099B800F0004230F000400AD0C10D49
:103D000001F56071C0F3160042EA0151C208400794
:103D100011437047002001467047000030B5041E73
:103D200071F1000404DB4FF00044404264EB0101F8
:103D3000141E73F1000405DB1C464FF00043524291
:103D400063EB04038B4208BF824230BD30B5041ED2
:103D500071F1000404DB4FF00044404264EB0101C8
:103D6000141E73F1000405DB1C464FF00043524261
:103D700063EB0403994208BF904230BD002801DB89
:103D8000C0F10040002901DBC1F1004181427047D0
:103D9000002801DBC0F10040002901DBC1F1004136
:103DA000884270472DE9F04791460F468046044609
:103DB000002614F8015B2DB100F076F80068405D34
:103DC000C007F6D12B2D02D02D2D18D0641E4A46E7
:103DD0003946204600F06CF827B13968A14201D17C
:103DE000C7F8008071054FF002040BD5404200284F
:103DF00003DD00F0CFF80460A007BDE8F08746F4CB
:103E00008066E4E70028F8DA00F0C4F804606FF098
:103E10000040F2E70029A8BF7047401C490008BFD6
:103E200020F00100704710B4B0FA80FC00FA0CF0EA
:103E300050EA010404BF10BC704749B1CCF1200422
:103E400021FA04F411FA0CF118BF012121430843AF
:103E5000A3EB0C01CB1D4FEA00614FEA102042BFDB
:103E6000002010BC704700EBC35010440029A4BFD1
:103E700010BC7047401C490008BF20F0010010BC76
:103E800070470000064C074D06E0E06840F0010373
:103E900094E8070098471034AC42F6D3FCF72AF9AF
:103EA00090510008B0510008004870474050000889
:103EB0002DE9F05F82460078002715468B460AF10F
:103EC0000104B946302801D09DB113E014F8010B6C
:103ED0000127782803D0582801D045B10AE00DB158
:103EE000102D07D10027102514F8010B02E008253A
:103EF00000E00A250026B0460EE005FB080005FBA1
:103F000006F1012701EB10461FFA80F8B6F5803F55
:103F100000D3B94614F8010B294600F018F8002820
:103F2000EBDABBF1000F05D00FB1641E00E0544680
:103F3000CBF80040B9F1000F06D000F02BF80221B9
:103F40000160C81EBDE8F09F48EA0640FAE73A283B
:103F500000D2303820F02002412A01D3A2F13700EC
:103F6000884201D34FF0FF30704700000FB4084B78
:103F700010B504A902AA039800F01FF8044602A98C
:103F8000002000F085F8204610BC5DF814FB00000E
:103F90009140000800487047A000002002E008C8D7
:103FA000121F08C1002AFAD170477047002001E0B3
:103FB00001C1121F002AFBD170472DE9F84F994625
:103FC000924688460546002706E025280AD0514635
:103FD0004A4690476D1C7F1C28780028F5D138464A
:103FE000BDE8F88F002315F8011F18462E2915D1BA
:103FF00015F8011F04232A290DD06FF02F0229780C
:10400000A1F13004092C09D800EB800002EB40003C
:1040100008446D1CF3E758F8040B6D1C2A78002A3D
:10402000DDD0632A07D0732A0FD0104651464A4686
:1040300090477F1C2AE018F8042B8DF800200021FF
:104040008DF801106E46012103E058F8046B4FF023
:10405000FF315A074FF0000401D409E0641C844288
:104060000BDA8C42FADB325D002AF7D105E0641CE2
:104070008C42FCDB305D0028F9D1274404E016F8BF
:10408000010B51464A469047641EF8D26D1CA3E7C7
:104090000A68531C0B60107070470000000000009D
:1040A000000000000000000000003F400000000091
:1040B0000000000030004000300040000000090017
:1040C0000BC03D000BC03D00090018C024407FE03C
:1040D000224031800000180024C01B000D803240B7
:1040E000018003801C4027401C80074000401000D6
:1040F0006000000000000000000000000000000060
:104100001F80204040200000402020401F800000F1
:104110000000090006001F800600090000000400DE
:1041200004003F8004000400000000100060000054
:10413000000000000000040004000400040004006B
:10414000000000000040000000000000000000200F
:1041500001C006003800400000001F8020402040C1
:1041600020401F800000000010403FC000400000C1
:10417000000018C021402240244018400000108058
:104180002040244024401B80000002000D0011004C
:104190003FC0014000003C80244024402440238054
:1041A00000001F8024402440344003800000300081
:1041B000200027C03800200000001B80244024403D
:1041C00024401B8000001C0022C0224022401F808F
:1041D0000000000000000840000000000000000097
:1041E00000000460000000000000000004000A005D
:1041F0001100208040400900090009000900090061
:10420000000000004040208011000A000400180057
:10421000200023402400180000001F802040274079
:1042200029401F400000004007C039000F0001C0B6
:10423000004020403FC0244024401B8000001F80DD
:104240002040204020403080000020403FC02040DF
:1042500020401F80000020403FC024402E4030C03E
:10426000000020403FC024402E00300000000F001E
:104270001080204022403380020020403FC00400D4
:1042800004003FC02040204020403FC0204020404C
:1042900000000060202020203FC02000200020409F
:1042A0003FC024400B0030C0204020403FC0204091
:1042B0000040004000C03FC03C0003C03C003FC085
:1042C000000020403FC00C4023003FC020001F8062
:1042D0002040204020401F80000020403FC024405C
:1042E0002400180000001F802140214020E01FA072
:1042F000000020403FC02440260019C0004018C0E4
:1043000024402440224031800000300020403FC043
:1043100020403000000020003F80004000403F80EF
:10432000200020003E0001C00700380020003800B7
:1043300007C03C0007C038000000204039C006001C
:1043400039C0204000002000384007C0384020001D
:104350000000304021C02640384020C0000000004E
:1043600000007FE0402040200000000070000C00B2
:104370000380004000000000402040207FE000005B
:10438000000000002000400020000000000000109D
:10439000001000100010001000100000000040008D
:1043A000000000000000000002800540054003C03E
:1043B000004020003FC00440044003800000000093
:1043C00003800440044006400000000003800440D5
:1043D00024403FC0004000000380054005400340EA
:1043E0000000000004401FC02440244020000000C2
:1043F00002E0055005500650042020403FC0044014
:10440000040003C000400000044027C0004000003A
:10441000000000100010041027E000000000204001
:104420003FC00140070004C00440204020403FC07E
:1044300000400040000007C0040007C0040003C0A3
:104440000000044007C00440040003C00040000016
:1044500003800440044003800000041007F004506F
:10446000044003800000000003800440045007F073
:104470000010044007C002400400040000000000D7
:1044800006400540054004C00000000004001F80F5
:10449000044000400000040007800040044007C0C2
:1044A00000400400070004C001800600040006006C
:1044B00001C0070001C006000000044006C0010062
:1044C00006C0044000000410071004E0018006004C
:1044D00004000000044005C0064004400000000045
:1044E000000004007BE0402000000000000000000D
:1044F000FFF000000000000040207BE0040000000E
:10450000000040008000400020002000400000002B
:10451000000000000000000000000000000000009B
:10452000000000001FCC000C000000000000000094
:104530000800300060000800300060000000022029
:1045400003FC1E20022003FC1E20022000000000AD
:104550000E1811043FFF10840C78000000000F00BB
:1045600010840F3800C007781884007800000078A5
:104570000F8410C411240E9800E400840008080081
:104580006800700000000000000000000000000053
:104590000000000007E0181820044002000000009E
:1045A00040022004181807E000000000000002404C
:1045B000024001800FF001800240024000000080B4
:1045C000008000800FF80080008000800000000163
:1045D000000D000E000000000000000000000000C0
:1045E000008000800080008000800080008000004B
:1045F000000C000C000000000000000000000000A3
:10460000000600180060018006001800200000006D
:1046100007F0080810041004080807F00000000064
:10462000080408041FFC000400040000000000004F
:104630000E0C10141024104411840E0C0000000005
:104640000C1810041104110412880C7000000000F2
:1046500000E00320042408241FFC002400000000C4
:104660001F981084110411041088107000000000BD
:1046700007F0088811041104188800700000000079
:104680001C00100010FC13001C00100000000000B3
:104690000E3811441084108411440E3800000000BC
:1046A0000700088C10441044088807F00000000040
:1046B00000000000030C030C0000000000000000DC
:1046C00000000001010600000000000000000000E2
:1046D000008001400220041008081004000002209D
:1046E00002200220022002200220022000000000FE
:1046F000100408080410022001400080000000009F
:104700000E001200100C106C10800F00000003E06F
:104710000C1813E4142417C4082807D00000000460
:10472000003C03C41C40074000E4001C00041004CB
:104730001FFC1104110411040E880070000003E036
:104740000C1810041004100410081C1000001004B1
:104750001FFC100410041004080807F000001004E7
:104760001FFC1104110417C41004081800001004E1
:104770001FFC1104110017C010000800000003E026
:104780000C181004100410441C78004000001004A1
:104790001FFC10840080008010841FFC10040000A7
:1047A000100410041FFC100410040000000000039B
:1047B0000001100110011FFE100010000000100485
:1047C0001FFC110403801464181C10040000100462
:1047D0001FFC1004000400040004000C000010047E
:1047E0001FFC1F0000FC1F001FFC10040000100431
:1047F0001FFC0C04030000E010181FFC100007F061
:104800000808100410041004080807F00000100441
:104810001FFC10841080108010800F00000007F033
:10482000081810241024101C080A07F200001004B5
:104830001FFC1104110011C011300E0C0004000007
:104840000E1C11041084108410441C380000180041
:10485000100010041FFC10041000180000001000CD
:104860001FF810040004000410041FF810001000CA
:104870001E0011E0001C007013801C0010001FC0FF
:10488000103C00E01F0000E0103C1FC000001004BE
:10489000180C163401C001C01634180C1004100096
:1048A0001C00130400FC13041C001000000008048A
:1048B000101C1064108413041C0410180000000065
:1048C000000000007FFE40024002400200000000A5
:1048D00030000C0003800060001C0003000000009A
:1048E0004002400240027FFE000000000000000085
:1048F00000002000400040004000200000000001B7
:1049000000010001000100010001000100010000A0
:1049100040004000200000000000000000000000F7
:104920000098012401440144014400FC00041000EB
:104930001FFC0088010401040088007000000000D2
:1049400000700088010401040104008800000000D8
:10495000007000880104010411081FFC000400001D
:1049600000F8014401440144014400C80000000073
:10497000010401040FFC11041104110018000000CF
:1049800000D601290129012901C9010600001004EE
:104990001FFC008401000100010400FC0004000071
:1049A0000104190419FC00040004000000000000C8
:1049B000000300010101190119FE000000001004AC
:1049C0001FFC0024004001B4010C010400000000A1
:1049D000100410041FFC0004000400000000010487
:1049E00001FC0104010001FC0104010000FC0104C0
:1049F00001FC008401000100010400FC000400002F
:104A000000F8010401040104010400F800000101A0
:104A100001FF00850104010400880070000000000F
:104A20000070008801040104010501FF0001010478
:104A3000010401FC00840104010001800000000069
:104A400000CC01240124012401240198000000006D
:104A50000100010007F8010401040000000001004A
:104A600001F8000400040004010801FC0004010036
:104A700001800170000C001001600180010001F054
:104A8000010C003001C00030010C01F001000000F9
:104A90000104018C00740170018C0104000001010B
:104AA00001810171000E0018016001800100000009
:104AB0000184010C013401440184010C0000000058
:104AC00000000000000001003EFC40024002000027
:104AD000000000000000FFFF0000000000000000D8
:104AE000400240023EFC0100000000000000000007
:104AF0006000800080004000400020002000000096
:104B000000000FF00820082008200820FFFF0820E0
:104B10000820082008200FF000000000000002001C
:104B20000204420E4214422442C44304420442049A
:104B300042244214420C420702000200000000001E
:104B400000810891089119222522E252228C2584A5
:104B50002A88309020A000C000000000000004015E
:104B60000401040204040408043004C0FF0004C06B
:104B700004300408040404020401040100000010CD
:104B8000002000C00700000000020001FFFE00003E
:104B9000000000000400020001800070000000021C
:104BA000020204220822302200220022FEFE0022FD
:104BB0000022202210220822060200020000000229
:104BC000000C3FF12401242124323FAAA4A464A4B0
:104BD00024A43FAA24322401240120010000000063
:104BE0003FFC210821083FFC000022002AFF2AA8E0
:104BF0002AA8FEA82AAA2AA92AFE220000000090BC
:104C0000029002A1FAA2AFD4AA8AAA81AABEAA805F
:104C1000AA88AFD4FAA202A1029000900000082056
:104C20000620407E318000000101060118020002CA
:104C3000FFC40008003011C0080006000000082072
:104C40000620403E30C003000020292025202122DC
:104C50002921457E41A0C5205820002000001310C6
:104C60001D18F11017FF112011200102414242428C
:104C70004442487E58426442424201020000080217
:104C80000802280A2BEA2AAA2AAA2AAA3FFE4AAA26
:104C90004AAA4AAACBEA480A080208020000000011
:104CA0007FFF401044085B1160E2000C7FF044403D
:104CB00044404440444244417FFE00000000400024
:104CC00047FF440044004490444844007FFE4400B1
:104CD000449044484402440147FE4000000008005C
:104CE0003000A082AA92AA92AA92A092FE92A092CA
:104CF000AA92AA92AA92A0FF2800300000000808F9
:104D00003008A008AA51AA95ABD6A0ACFEA4A0A4D6
:104D1000AAD5AA97AA10A0082808300800000A42BD
:104D20003252A594ACA5AB49A93EA200FBEAA2AAC7
:104D3000AAAAABFEAAAAA2AA2BEA3002000000018E
:104D400000067FF8400048044408433040C0433028
:104D50004C0C40007FF0000C0002001F000000809F
:104D6000010006001FFFE0080810082008D00B1003
:104D7000FFFF0B1008D008200810000800001000EA
:104D8000100017FF94907492149117FE10001000F9
:104D900013F03002D00117FE1000100000000000D8
:104DA0007FFE4002400240124822444242824102B9
:104DB0004282444258324002400200020000200079
:104DC00027FF24002410269025902490FCFE249098
:104DD000259026902412240127FE200000000001C7
:104DE00000067FF8400241024102410241025FFE9B
:104DF000410241024122411A4102400200000201E7
:104E00000201420242044208423042C07F0042C0D6
:104E10004230420842044202020102010000000046
:104E2000100011FC11001100110091005FFF110032
:104E300011001108110411F8100000000000010019
:104E400041014102410C7FF041004100410041001D
:104E500041007FFF410041004100010000000000CF
:104E60000202422222221A2202220222FE220222CE
:104E700002220A22122263FF00000000000000113B
:104E800000663F8020002BC62A412A412A492BD5A3
:104E90002021FE412183A3406C2420F30000040064
:104EA00008003200E2002A002A002A002A002A0014
:104EB0002A002A002BF0200C2002000F00000820FE
:104EC0000620403E30C0030008082A482A482A48E5
:104ED000FFFF2A482A483E4808080800000008202A
:104EE0000620407E31800002007E7F424942497E9A
:104EF0004942497E49427F42007E0002000008206C
:104F00000620407E318000227F12490A49FE490274
:104F1000490249FE490A7F12002200020000600097
:104F20009000900067E01FF8300C2004400240021F
:104F300040024002400220047808000000000444BF
:104F40000CE63544C6480C480002400C40F17F0195
:104F500040C2403446085A3463C2000100000000D9
:104F600010041188129014A01882F08117FE10808E
:104F7000108010A010901088100400000000400065
:104F8000400047FF441244227FC2440244024402CC
:104F90007FC24422442247FF40004000000000043A
:104FA0000406040404080408FFFF000000000000D9
:104FB000FFFC0202040208021002001E0000004072
:104FC00040404040404040404141414141404040DC
:104FD000404040404040404040404040404040050C
:104FE0000202020202020202020202020202022083
:104FF0002020202020202020200202020202020283
:1050000090909090909010101010101010101010A0
:1050100010101010101010101010020202020202E4
:105020008888888888880808080808080808080800
:1050300008080808080808080808020202024000D8
:10504000BF4F0008474554202F76322E352F54414C
:105050006B686A663864316E6C536C73704E2F31B6
:1050600031372E31353037342C33392E3133383215
:105070002F7265616C74696D652E6A736F6E20485E
:105080005454502F312E310D0A486F73743A2061F9
:1050900070692E63616979756E6170702E636F6DD2
:1050A0000D0A436F6E6E656374696F6E3A206B65AF
:1050B00065702D616C6976650D0A507261676D616E
:1050C0003A206E6F2D63616368650D0A4361636802
:1050D000652D436F6E74726F6C3A206E6F2D636135
:1050E0006368650D0A444E543A20310D0A557067C5
:1050F000726164652D496E7365637572652D5265C5
:105100007175657374733A20310D0A557365722D8C
:105110004167656E743A204D6F7A696C6C612F350A
:105120002E30202857696E646F7773204E542031DB
:10513000302E303B2057696E36343B207836342988
:10514000204170706C655765624B69742F35333739
:105150002E333620284B48544D4C2C206C696B65FF
:10516000204765636B6F29204368726F6D652F3729
:10517000372E302E333836352E3930205361666164
:1051800072692F3533372E33360D0A0D0A000000B1
:10519000B051000800000020A40000009C3F00085F
:1051A00054520008A40000209C100000AC3F0008EE
:1051B00000A24A04000000000000000001020304F5
:1051C00006070809000000000000000000000000C1
:1051D0000102030401020304060708090204060889
:1051E00000000000000000000000000000000000BF
:1051F00000000000000000000000000000000000AF
:10520000000000000000000000000000000000009E
:10521000000000000000000000000000000000008E
:10522000000000000000000000000000000000007E
:10523000000000000000000000000000000000006E
:105240001004180C163401C001C01634180C1004D8
:04525000000000005A
:04000005080000ED02
:00000001FF
